:1000000009C016C015C0ADC013C012C011C010C0C9
:100010000FC00EC011241FBECFE9CDBF20E0A0E667
:10002000B0E001C01D92A336B207E1F791D1A4C19F
:10003000E7CF815038F09FEF0000000000009150A2
:10004000D9F7F7CF08950F931F93CF93DF93C62F60
:1000500098B301E010E001C0000F8A95EAF7D02FB5
:10006000D0959D2398BB84E6E4DFCC2361F088B370
:10007000802B88BB80E5DDDF88B38D2388BB88ECCF
:10008000D8DFC150F2CFDF91CF911F910F9108952A
:10009000B09903C084E6CDDFFBCF0895882311F02B
:1000A000C49A0895C4980895EF92FF920F931F93F6
:1000B000CF93DF93F82EE62EDDE0D150C1F06F2D07
:1000C00084E0C1DF8AEFB5DFE3DFC0E011E01C0FA1
:1000D000E11698F3612F83E0B6DF05E1015029F0C6
:1000E000B09B07C082E3A5DFF9CFC12FEFCF8FEF21
:1000F00002C0CEDF8C2FDF91CF911F910F91FF9027
:10010000EF900895CF938AEF94DF8AEF92DFCBE0F0
:10011000C15039F0B09B02C08FEF21C08AEF89DF58
:10012000F7CFB6DF64E081E0BFDFC82F8F3FA1F3D8
:1001300064E082E0B9DF8F3F79F3880F880FC82B26
:1001400062E083E0B1DF8F3F39F38295807F8C2BB3
:10015000E199FECF1EBA1CBA8DBBE29AE19ACF910B
:1001600008951F920F920FB60F9211248F939F93B1
:10017000809160008F5F80936000809160008B347D
:1001800070F08091600081E0809360008091610058
:1001900090916200019690936200809361009F911C
:1001A0008F910F900FBE0F901F9018950895A82E55
:1001B000C82FC37061E06C0F84E045DFCC0FCC0F1B
:1001C000CC0F90E4C92ECC0E2CE2D22EDC0ECA2D20
:1001D000D0E0D595C795D595C795C370EE24E39427
:1001E000EC0E6E2D83E02FDFE294EE0C40EEE42265
:1001F000CC0FC65FCE0DB12C10E0712C00E0F12CBD
:100200008A2D8071A82ED0E058E0652E01111BC008
:10021000C498AA2099F08091610090916200429761
:10022000A9F51092620010926100C49A8AEF01DF72
:100230008AEFFFDE8AEFFDDEC49828C010926200CC
:100240001092610023C0013011F4C49A1FC0023023
:10025000B1F41C0D812E912C880C892C881C9908D6
:10026000882D1CDF8091610090916200E816F906EC
:1002700060F0892811F4C39A08C0C39806C01D0D08
:10028000812F881F8827881F09DF1F77B09B1BC01D
:1002900080E4B8121CC08091610090916200E81661
:1002A000F90620F00F5F043009F400E010926200BC
:1002B0001092610010926000013011F4C39A01C0E5
:1002C000C398B12C04C08FE38B1508F0B3948091D0
:1002D0006100909162008C179D0749F4C3981092B9
:1002E0006000109262001092610000E091CF8E15C4
:1002F0009F0508F48BCF80916000853031F08091AC
:100300006000893111F0712C81CF711003C098B356
:10031000962598BB7724739479CFF894BC9ABB9AAE
:10032000B898C09A83B7836083BF83B78B7F83BF3E
:1003300089B7826089BFE6DE8F3F41F4E199FECF45
:100340001EBAE09A8DB38F3F09F480E078942FDFD6
:1003500003D0E3DF2BDFFECF83B7816083BF8FB590
:1003600083608FBD89B7826089BF12BE789417B849
:0C03700086B1826886B90895F894FFCF2A
:00000001FF
